{
  "contractName": "Zeropool",
  "abi": [
    {
      "inputs": [],
      "stateMutability": "nonpayable",
      "type": "constructor"
    },
    {
      "anonymous": false,
      "inputs": [],
      "name": "Deposit",
      "type": "event"
    },
    {
      "inputs": [
        {
          "internalType": "bytes32",
          "name": "",
          "type": "bytes32"
        }
      ],
      "name": "deposit_state",
      "outputs": [
        {
          "internalType": "uint256",
          "name": "",
          "type": "uint256"
        }
      ],
      "stateMutability": "view",
      "type": "function",
      "constant": true
    },
    {
      "inputs": [],
      "name": "owner",
      "outputs": [
        {
          "internalType": "address",
          "name": "",
          "type": "address"
        }
      ],
      "stateMutability": "view",
      "type": "function",
      "constant": true
    },
    {
      "inputs": [
        {
          "internalType": "uint256",
          "name": "",
          "type": "uint256"
        }
      ],
      "name": "rollup_block",
      "outputs": [
        {
          "internalType": "bytes32",
          "name": "",
          "type": "bytes32"
        }
      ],
      "stateMutability": "view",
      "type": "function",
      "constant": true
    },
    {
      "inputs": [],
      "name": "rollup_tx_num",
      "outputs": [
        {
          "internalType": "uint256",
          "name": "",
          "type": "uint256"
        }
      ],
      "stateMutability": "view",
      "type": "function",
      "constant": true
    },
    {
      "inputs": [
        {
          "internalType": "bytes32",
          "name": "",
          "type": "bytes32"
        }
      ],
      "name": "withdraw_state",
      "outputs": [
        {
          "internalType": "uint256",
          "name": "",
          "type": "uint256"
        }
      ],
      "stateMutability": "view",
      "type": "function",
      "constant": true
    },
    {
      "inputs": [
        {
          "internalType": "contract IERC20",
          "name": "token",
          "type": "address"
        },
        {
          "internalType": "uint256",
          "name": "amount",
          "type": "uint256"
        },
        {
          "internalType": "bytes32",
          "name": "txhash",
          "type": "bytes32"
        }
      ],
      "name": "deposit",
      "outputs": [
        {
          "internalType": "bool",
          "name": "",
          "type": "bool"
        }
      ],
      "stateMutability": "payable",
      "type": "function",
      "payable": true
    },
    {
      "inputs": [
        {
          "components": [
            {
              "components": [
                {
                  "internalType": "address",
                  "name": "owner",
                  "type": "address"
                },
                {
                  "internalType": "contract IERC20",
                  "name": "token",
                  "type": "address"
                },
                {
                  "internalType": "uint256",
                  "name": "amount",
                  "type": "uint256"
                }
              ],
              "internalType": "struct Zeropool.UTXO",
              "name": "utxo",
              "type": "tuple"
            },
            {
              "internalType": "uint256",
              "name": "blocknumber",
              "type": "uint256"
            },
            {
              "internalType": "uint256",
              "name": "txhash",
              "type": "uint256"
            }
          ],
          "internalType": "struct Zeropool.PayNote",
          "name": "d",
          "type": "tuple"
        }
      ],
      "name": "depositCancel",
      "outputs": [
        {
          "internalType": "bool",
          "name": "",
          "type": "bool"
        }
      ],
      "stateMutability": "payable",
      "type": "function",
      "payable": true
    },
    {
      "inputs": [
        {
          "components": [
            {
              "components": [
                {
                  "internalType": "address",
                  "name": "owner",
                  "type": "address"
                },
                {
                  "internalType": "contract IERC20",
                  "name": "token",
                  "type": "address"
                },
                {
                  "internalType": "uint256",
                  "name": "amount",
                  "type": "uint256"
                }
              ],
              "internalType": "struct Zeropool.UTXO",
              "name": "utxo",
              "type": "tuple"
            },
            {
              "internalType": "uint256",
              "name": "blocknumber",
              "type": "uint256"
            },
            {
              "internalType": "uint256",
              "name": "txhash",
              "type": "uint256"
            }
          ],
          "internalType": "struct Zeropool.PayNote",
          "name": "w",
          "type": "tuple"
        }
      ],
      "name": "withdraw",
      "outputs": [
        {
          "internalType": "bool",
          "name": "",
          "type": "bool"
        }
      ],
      "stateMutability": "nonpayable",
      "type": "function"
    },
    {
      "inputs": [
        {
          "components": [
            {
              "components": [
                {
                  "internalType": "uint256",
                  "name": "rootptr",
                  "type": "uint256"
                },
                {
                  "internalType": "uint256[2]",
                  "name": "nullifier",
                  "type": "uint256[2]"
                },
                {
                  "internalType": "uint256[2]",
                  "name": "utxo",
                  "type": "uint256[2]"
                },
                {
                  "internalType": "contract IERC20",
                  "name": "token",
                  "type": "address"
                },
                {
                  "internalType": "uint256",
                  "name": "delta",
                  "type": "uint256"
                },
                {
                  "components": [
                    {
                      "internalType": "address",
                      "name": "owner",
                      "type": "address"
                    },
                    {
                      "components": [
                        {
                          "internalType": "uint256[4]",
                          "name": "data",
                          "type": "uint256[4]"
                        }
                      ],
                      "internalType": "struct Zeropool.Message[2]",
                      "name": "message",
                      "type": "tuple[2]"
                    }
                  ],
                  "internalType": "struct Zeropool.TxExternalFields",
                  "name": "ext",
                  "type": "tuple"
                },
                {
                  "components": [
                    {
                      "internalType": "uint256[8]",
                      "name": "data",
                      "type": "uint256[8]"
                    }
                  ],
                  "internalType": "struct Zeropool.Proof",
                  "name": "proof",
                  "type": "tuple"
                }
              ],
              "internalType": "struct Zeropool.Tx",
              "name": "ctx",
              "type": "tuple"
            },
            {
              "internalType": "uint256",
              "name": "new_root",
              "type": "uint256"
            },
            {
              "internalType": "uint256",
              "name": "deposit_blocknumber",
              "type": "uint256"
            }
          ],
          "internalType": "struct Zeropool.BlockItem[]",
          "name": "items",
          "type": "tuple[]"
        },
        {
          "internalType": "uint256",
          "name": "rollup_cur_block_num",
          "type": "uint256"
        },
        {
          "internalType": "uint256",
          "name": "blocknumber_expires",
          "type": "uint256"
        }
      ],
      "name": "publishBlock",
      "outputs": [
        {
          "internalType": "bool",
          "name": "",
          "type": "bool"
        }
      ],
      "stateMutability": "nonpayable",
      "type": "function"
    },
    {
      "inputs": [],
      "name": "stopRollup",
      "outputs": [],
      "stateMutability": "nonpayable",
      "type": "function"
    },
    {
      "inputs": [
        {
          "components": [
            {
              "internalType": "bytes32[8]",
              "name": "proof",
              "type": "bytes32[8]"
            },
            {
              "internalType": "uint256",
              "name": "id",
              "type": "uint256"
            },
            {
              "components": [
                {
                  "components": [
                    {
                      "internalType": "uint256",
                      "name": "rootptr",
                      "type": "uint256"
                    },
                    {
                      "internalType": "uint256[2]",
                      "name": "nullifier",
                      "type": "uint256[2]"
                    },
                    {
                      "internalType": "uint256[2]",
                      "name": "utxo",
                      "type": "uint256[2]"
                    },
                    {
                      "internalType": "contract IERC20",
                      "name": "token",
                      "type": "address"
                    },
                    {
                      "internalType": "uint256",
                      "name": "delta",
                      "type": "uint256"
                    },
                    {
                      "components": [
                        {
                          "internalType": "address",
                          "name": "owner",
                          "type": "address"
                        },
                        {
                          "components": [
                            {
                              "internalType": "uint256[4]",
                              "name": "data",
                              "type": "uint256[4]"
                            }
                          ],
                          "internalType": "struct Zeropool.Message[2]",
                          "name": "message",
                          "type": "tuple[2]"
                        }
                      ],
                      "internalType": "struct Zeropool.TxExternalFields",
                      "name": "ext",
                      "type": "tuple"
                    },
                    {
                      "components": [
                        {
                          "internalType": "uint256[8]",
                          "name": "data",
                          "type": "uint256[8]"
                        }
                      ],
                      "internalType": "struct Zeropool.Proof",
                      "name": "proof",
                      "type": "tuple"
                    }
                  ],
                  "internalType": "struct Zeropool.Tx",
                  "name": "ctx",
                  "type": "tuple"
                },
                {
                  "internalType": "uint256",
                  "name": "new_root",
                  "type": "uint256"
                },
                {
                  "internalType": "uint256",
                  "name": "deposit_blocknumber",
                  "type": "uint256"
                }
              ],
              "internalType": "struct Zeropool.BlockItem",
              "name": "item",
              "type": "tuple"
            }
          ],
          "internalType": "struct Zeropool.BlockItemNote",
          "name": "cur",
          "type": "tuple"
        },
        {
          "components": [
            {
              "internalType": "bytes32[8]",
              "name": "proof",
              "type": "bytes32[8]"
            },
            {
              "internalType": "uint256",
              "name": "id",
              "type": "uint256"
            },
            {
              "components": [
                {
                  "components": [
                    {
                      "internalType": "uint256",
                      "name": "rootptr",
                      "type": "uint256"
                    },
                    {
                      "internalType": "uint256[2]",
                      "name": "nullifier",
                      "type": "uint256[2]"
                    },
                    {
                      "internalType": "uint256[2]",
                      "name": "utxo",
                      "type": "uint256[2]"
                    },
                    {
                      "internalType": "contract IERC20",
                      "name": "token",
                      "type": "address"
                    },
                    {
                      "internalType": "uint256",
                      "name": "delta",
                      "type": "uint256"
                    },
                    {
                      "components": [
                        {
                          "internalType": "address",
                          "name": "owner",
                          "type": "address"
                        },
                        {
                          "components": [
                            {
                              "internalType": "uint256[4]",
                              "name": "data",
                              "type": "uint256[4]"
                            }
                          ],
                          "internalType": "struct Zeropool.Message[2]",
                          "name": "message",
                          "type": "tuple[2]"
                        }
                      ],
                      "internalType": "struct Zeropool.TxExternalFields",
                      "name": "ext",
                      "type": "tuple"
                    },
                    {
                      "components": [
                        {
                          "internalType": "uint256[8]",
                          "name": "data",
                          "type": "uint256[8]"
                        }
                      ],
                      "internalType": "struct Zeropool.Proof",
                      "name": "proof",
                      "type": "tuple"
                    }
                  ],
                  "internalType": "struct Zeropool.Tx",
                  "name": "ctx",
                  "type": "tuple"
                },
                {
                  "internalType": "uint256",
                  "name": "new_root",
                  "type": "uint256"
                },
                {
                  "internalType": "uint256",
                  "name": "deposit_blocknumber",
                  "type": "uint256"
                }
              ],
              "internalType": "struct Zeropool.BlockItem",
              "name": "item",
              "type": "tuple"
            }
          ],
          "internalType": "struct Zeropool.BlockItemNote",
          "name": "base",
          "type": "tuple"
        }
      ],
      "name": "challengeTx",
      "outputs": [
        {
          "internalType": "bool",
          "name": "",
          "type": "bool"
        }
      ],
      "stateMutability": "nonpayable",
      "type": "function"
    },
    {
      "inputs": [
        {
          "components": [
            {
              "internalType": "bytes32[8]",
              "name": "proof",
              "type": "bytes32[8]"
            },
            {
              "internalType": "uint256",
              "name": "id",
              "type": "uint256"
            },
            {
              "components": [
                {
                  "components": [
                    {
                      "internalType": "uint256",
                      "name": "rootptr",
                      "type": "uint256"
                    },
                    {
                      "internalType": "uint256[2]",
                      "name": "nullifier",
                      "type": "uint256[2]"
                    },
                    {
                      "internalType": "uint256[2]",
                      "name": "utxo",
                      "type": "uint256[2]"
                    },
                    {
                      "internalType": "contract IERC20",
                      "name": "token",
                      "type": "address"
                    },
                    {
                      "internalType": "uint256",
                      "name": "delta",
                      "type": "uint256"
                    },
                    {
                      "components": [
                        {
                          "internalType": "address",
                          "name": "owner",
                          "type": "address"
                        },
                        {
                          "components": [
                            {
                              "internalType": "uint256[4]",
                              "name": "data",
                              "type": "uint256[4]"
                            }
                          ],
                          "internalType": "struct Zeropool.Message[2]",
                          "name": "message",
                          "type": "tuple[2]"
                        }
                      ],
                      "internalType": "struct Zeropool.TxExternalFields",
                      "name": "ext",
                      "type": "tuple"
                    },
                    {
                      "components": [
                        {
                          "internalType": "uint256[8]",
                          "name": "data",
                          "type": "uint256[8]"
                        }
                      ],
                      "internalType": "struct Zeropool.Proof",
                      "name": "proof",
                      "type": "tuple"
                    }
                  ],
                  "internalType": "struct Zeropool.Tx",
                  "name": "ctx",
                  "type": "tuple"
                },
                {
                  "internalType": "uint256",
                  "name": "new_root",
                  "type": "uint256"
                },
                {
                  "internalType": "uint256",
                  "name": "deposit_blocknumber",
                  "type": "uint256"
                }
              ],
              "internalType": "struct Zeropool.BlockItem",
              "name": "item",
              "type": "tuple"
            }
          ],
          "internalType": "struct Zeropool.BlockItemNote",
          "name": "cur",
          "type": "tuple"
        },
        {
          "components": [
            {
              "internalType": "bytes32[8]",
              "name": "proof",
              "type": "bytes32[8]"
            },
            {
              "internalType": "uint256",
              "name": "id",
              "type": "uint256"
            },
            {
              "components": [
                {
                  "components": [
                    {
                      "internalType": "uint256",
                      "name": "rootptr",
                      "type": "uint256"
                    },
                    {
                      "internalType": "uint256[2]",
                      "name": "nullifier",
                      "type": "uint256[2]"
                    },
                    {
                      "internalType": "uint256[2]",
                      "name": "utxo",
                      "type": "uint256[2]"
                    },
                    {
                      "internalType": "contract IERC20",
                      "name": "token",
                      "type": "address"
                    },
                    {
                      "internalType": "uint256",
                      "name": "delta",
                      "type": "uint256"
                    },
                    {
                      "components": [
                        {
                          "internalType": "address",
                          "name": "owner",
                          "type": "address"
                        },
                        {
                          "components": [
                            {
                              "internalType": "uint256[4]",
                              "name": "data",
                              "type": "uint256[4]"
                            }
                          ],
                          "internalType": "struct Zeropool.Message[2]",
                          "name": "message",
                          "type": "tuple[2]"
                        }
                      ],
                      "internalType": "struct Zeropool.TxExternalFields",
                      "name": "ext",
                      "type": "tuple"
                    },
                    {
                      "components": [
                        {
                          "internalType": "uint256[8]",
                          "name": "data",
                          "type": "uint256[8]"
                        }
                      ],
                      "internalType": "struct Zeropool.Proof",
                      "name": "proof",
                      "type": "tuple"
                    }
                  ],
                  "internalType": "struct Zeropool.Tx",
                  "name": "ctx",
                  "type": "tuple"
                },
                {
                  "internalType": "uint256",
                  "name": "new_root",
                  "type": "uint256"
                },
                {
                  "internalType": "uint256",
                  "name": "deposit_blocknumber",
                  "type": "uint256"
                }
              ],
              "internalType": "struct Zeropool.BlockItem",
              "name": "item",
              "type": "tuple"
            }
          ],
          "internalType": "struct Zeropool.BlockItemNote",
          "name": "prev",
          "type": "tuple"
        }
      ],
      "name": "challengeUTXOTreeUpdate",
      "outputs": [
        {
          "internalType": "bool",
          "name": "",
          "type": "bool"
        }
      ],
      "stateMutability": "nonpayable",
      "type": "function"
    },
    {
      "inputs": [
        {
          "components": [
            {
              "internalType": "bytes32[8]",
              "name": "proof",
              "type": "bytes32[8]"
            },
            {
              "internalType": "uint256",
              "name": "id",
              "type": "uint256"
            },
            {
              "components": [
                {
                  "components": [
                    {
                      "internalType": "uint256",
                      "name": "rootptr",
                      "type": "uint256"
                    },
                    {
                      "internalType": "uint256[2]",
                      "name": "nullifier",
                      "type": "uint256[2]"
                    },
                    {
                      "internalType": "uint256[2]",
                      "name": "utxo",
                      "type": "uint256[2]"
                    },
                    {
                      "internalType": "contract IERC20",
                      "name": "token",
                      "type": "address"
                    },
                    {
                      "internalType": "uint256",
                      "name": "delta",
                      "type": "uint256"
                    },
                    {
                      "components": [
                        {
                          "internalType": "address",
                          "name": "owner",
                          "type": "address"
                        },
                        {
                          "components": [
                            {
                              "internalType": "uint256[4]",
                              "name": "data",
                              "type": "uint256[4]"
                            }
                          ],
                          "internalType": "struct Zeropool.Message[2]",
                          "name": "message",
                          "type": "tuple[2]"
                        }
                      ],
                      "internalType": "struct Zeropool.TxExternalFields",
                      "name": "ext",
                      "type": "tuple"
                    },
                    {
                      "components": [
                        {
                          "internalType": "uint256[8]",
                          "name": "data",
                          "type": "uint256[8]"
                        }
                      ],
                      "internalType": "struct Zeropool.Proof",
                      "name": "proof",
                      "type": "tuple"
                    }
                  ],
                  "internalType": "struct Zeropool.Tx",
                  "name": "ctx",
                  "type": "tuple"
                },
                {
                  "internalType": "uint256",
                  "name": "new_root",
                  "type": "uint256"
                },
                {
                  "internalType": "uint256",
                  "name": "deposit_blocknumber",
                  "type": "uint256"
                }
              ],
              "internalType": "struct Zeropool.BlockItem",
              "name": "item",
              "type": "tuple"
            }
          ],
          "internalType": "struct Zeropool.BlockItemNote",
          "name": "cur",
          "type": "tuple"
        },
        {
          "components": [
            {
              "internalType": "bytes32[8]",
              "name": "proof",
              "type": "bytes32[8]"
            },
            {
              "internalType": "uint256",
              "name": "id",
              "type": "uint256"
            },
            {
              "components": [
                {
                  "components": [
                    {
                      "internalType": "uint256",
                      "name": "rootptr",
                      "type": "uint256"
                    },
                    {
                      "internalType": "uint256[2]",
                      "name": "nullifier",
                      "type": "uint256[2]"
                    },
                    {
                      "internalType": "uint256[2]",
                      "name": "utxo",
                      "type": "uint256[2]"
                    },
                    {
                      "internalType": "contract IERC20",
                      "name": "token",
                      "type": "address"
                    },
                    {
                      "internalType": "uint256",
                      "name": "delta",
                      "type": "uint256"
                    },
                    {
                      "components": [
                        {
                          "internalType": "address",
                          "name": "owner",
                          "type": "address"
                        },
                        {
                          "components": [
                            {
                              "internalType": "uint256[4]",
                              "name": "data",
                              "type": "uint256[4]"
                            }
                          ],
                          "internalType": "struct Zeropool.Message[2]",
                          "name": "message",
                          "type": "tuple[2]"
                        }
                      ],
                      "internalType": "struct Zeropool.TxExternalFields",
                      "name": "ext",
                      "type": "tuple"
                    },
                    {
                      "components": [
                        {
                          "internalType": "uint256[8]",
                          "name": "data",
                          "type": "uint256[8]"
                        }
                      ],
                      "internalType": "struct Zeropool.Proof",
                      "name": "proof",
                      "type": "tuple"
                    }
                  ],
                  "internalType": "struct Zeropool.Tx",
                  "name": "ctx",
                  "type": "tuple"
                },
                {
                  "internalType": "uint256",
                  "name": "new_root",
                  "type": "uint256"
                },
                {
                  "internalType": "uint256",
                  "name": "deposit_blocknumber",
                  "type": "uint256"
                }
              ],
              "internalType": "struct Zeropool.BlockItem",
              "name": "item",
              "type": "tuple"
            }
          ],
          "internalType": "struct Zeropool.BlockItemNote",
          "name": "prev",
          "type": "tuple"
        }
      ],
      "name": "challengeDoubleSpend",
      "outputs": [
        {
          "internalType": "bool",
          "name": "",
          "type": "bool"
        }
      ],
      "stateMutability": "nonpayable",
      "type": "function"
    }
  ],
  "bytecode": "0x608060405234801561001057600080fd5b50600080546001600160a01b03191633178155805260016020527f9867cc5f7f196b93bae1e27e6320742445d290f2263827498b54fec539f756af7fa6eef7e35abe7026729641147f7915573c7e97b47efa546f5f6e3230263bcb4955610100600455611d32806100826000396000f3fe6080604052600436106100c25760003560e01c8063a7772e681161007f578063c991abe111610059578063c991abe1146101e7578063cfb7b71614610207578063d5657e3d14610227578063e27d2a8714610247576100c2565b8063a7772e6814610187578063aff925a2146101a7578063bc327ca2146101c7576100c2565b8063116e9b73146100c75780631790acba146100fd57806326b3293f1461011d5780632d340640146101305780638da5cb5b146101505780639b78ec0714610172575b600080fd5b3480156100d357600080fd5b506100e76100e23660046118df565b61025e565b6040516100f49190611bb2565b60405180910390f35b61011061010b366004611961565b610270565b6040516100f49190611ba7565b61011061012b3660046118f7565b610319565b34801561013c57600080fd5b5061011061014b36600461192b565b6103b0565b34801561015c57600080fd5b5061016561061f565b6040516100f49190611b25565b34801561017e57600080fd5b506100e761062e565b34801561019357600080fd5b506100e76101a23660046118df565b610634565b3480156101b357600080fd5b506101106101c236600461192b565b610646565b3480156101d357600080fd5b506101106101e236600461192b565b610711565b3480156101f357600080fd5b506100e76102023660046118df565b61089e565b34801561021357600080fd5b50610110610222366004611961565b6108b0565b34801561023357600080fd5b506101106102423660046117fd565b61094c565b34801561025357600080fd5b5061025c610cb5565b005b60016020526000908152604090205481565b600080826040516020016102849190611c43565b604051602081830303815290604052805190602001209050600454600260008381526020019081526020016000205410156102be57600080fd5b6101f443038360200151106102d257600080fd5b600081815260026020908152604080832092909255845180519281015191015161030d926001600160a01b039091169163ffffffff610cb716565b5060019150505b919050565b6000806103356001600160a01b0386168563ffffffff610db916565b905060003386834387604051602001610352959493929190611b5d565b60408051601f1981840301815282825280516020918201206000818152600290925291812060001990559092507fed21248cb703b524cc0029bb8669df941baca560163a3bc6ad184e7e9c26807091a16001925050505b9392505050565b60006103bb83610e91565b80156103cb57506103cb82610e91565b6103d457600080fd5b602082015160408401515151146103ea57600080fd5b604080516008808252610120820190925260609160208201610100803883390190505090508260400151602001518160008151811061042557fe5b60209081029190910181019190915260408501515101515181518290600190811061044c57fe5b6020908102919091018101919091526040850151510151600160200201518160028151811061047757fe5b60209081029190910101526040848101515101515181518290600390811061049b57fe5b602090810291909101015260408085015151015160016020020151816004815181106104c357fe5b602002602001018181525050836040015160000151606001516001600160a01b0316816005815181106104f257fe5b602002602001018181525050836040015160000151608001518160068151811061051857fe5b60200260200101818152505083604001516000015160a001516040516020016105419190611c82565b6040516020818303038152906040528051906020012060001c8160078151811061056757fe5b6020026020010181815250506105ec6005604051806020016040529081600082018054806020026020016040519081016040528092919081815260200182805480156105d257602002820191906000526020600020905b8154815260200190600101908083116105be575b5050509190925250505060408601515160c0015183610ee2565b1580610602575060208401516040850151515110155b61060b57600080fd5b610613610cb5565b60019150505b92915050565b6000546001600160a01b031690565b60045481565b60026020526000908152604090205481565b600061065183610e91565b8015610661575061066182610e91565b61066a57600080fd5b816020015183602001511161067e57600080fd5b6040828101515160209081015151918501515101515114806106b55750604082810151516020908101518101519185015151015151145b806106d55750604082810151516020908101515191850151518101510151145b806106f757506040828101515160209081015181015191850151518101510151145b61070057600080fd5b610708610cb5565b50600192915050565b600061071c83610e91565b801561072c575061072c82610e91565b61073557600080fd5b816020015160010183602001511461074c57600080fd5b60408051600580825260c082019092526060916020820160a0803883390190505090508260400151602001518160008151811061078557fe5b602002602001018181525050836040015160200151816001815181106107a757fe5b6020026020010181815250508260200151816002815181106107c557fe5b6020908102919091010152604084810151510151518151829060039081106107e957fe5b6020908102919091010152604080850151510151600160200201518160048151811061081157fe5b6020026020010181815250506108946006604051806020016040529081600082018054806020026020016040519081016040528092919081815260200182805480156105d257602002820191906000526020600020908154815260200190600101908083116105be575050509190925250505060408601515160c0015183610ee2565b1561060b57600080fd5b60036020526000908152604090205481565b600080826040516020016108c49190611c43565b6040516020818303038152906040528051906020012090506004546003600083815260200190815260200160002054106108fd57600080fd5b611680430383602001511061091157600080fd5b600081815260036020908152604080832092909255845180519281015191015161030d926001600160a01b039091169163ffffffff610cb716565b600080546001600160a01b031633146109805760405162461bcd60e51b815260040161097790611bdf565b60405180910390fd5b60045460081c831461099157600080fd5b81431061099d57600080fd5b835180158015906109b057506101008111155b6109b957600080fd5b6060816040519080825280602002602001820160405280156109e5578160200160208202803883390190505b50905060005b82811015610c7d576109fb611382565b878281518110610a0757fe5b60200260200101519050600081604051602001610a249190611c14565b60408051601f198184030181529082905280516020918201208451909350600092610a4f9201611c91565b60405160208183030381529060405280519060200120905082600001516080015160001415610abf57604083015115610a8757600080fd5b8251606001516001600160a01b031615610aa057600080fd5b825160a00151516001600160a01b031615610aba57600080fd5b610c5a565b825160800151600160f01b1115610b5257825160a08101515160608201516080909201516040808701519051600094610b019493909290918790602001611b5d565b60408051601f1981840301815291815281516020928301206000818152600290935291205490915060001914610b3657600080fd5b6004546000918252600260205260409091209085019055610c5a565b8251608001517f2522648240000001ba344d8000000007ff9f800000000010a10000000000000d108015610baa57508251608001517f2523648240000001ba344d8000000007ff9f800000000010a10000000000000d115b156100c257604083015115610bbe57600080fd5b825160a0810151516060820151608090920151604051600093610c10939290917f2523648240000001ba344d8000000007ff9f800000000010a10000000000000d919091039043908790602001611b5d565b60408051601f1981840301815291815281516020928301206000818152600390935291205490915015610c4257600080fd5b60045460009182526003602052604090912090850190555b81858581518110610c6757fe5b60209081029190910101525050506001016109eb565b50610c8781610eeb565b6004805460081c60009081526001602081905260409091209290925580546101000190559695505050505050565b565b60006001600160a01b038416610d06576040516001600160a01b0384169083156108fc029084906000818181858888f19350505050158015610cfd573d6000803e3d6000fd5b508190506103a9565b6000610d128530611082565b60405163a9059cbb60e01b81529091506001600160a01b0386169063a9059cbb90610d439087908790600401611b8e565b602060405180830381600087803b158015610d5d57600080fd5b505af1158015610d71573d6000803e3d6000fd5b505050506040513d601f19601f82011682018060405250610d9591908101906118bf565b506000610da28630611082565b8203905080610db057600080fd5b91506103a99050565b60006001600160a01b038316610ddc57813414610dd557600080fd5b5080610619565b6000610de88430611082565b6040516323b872dd60e01b81529091506001600160a01b038516906323b872dd90610e1b90339030908890600401611b39565b602060405180830381600087803b158015610e3557600080fd5b505af1158015610e49573d6000803e3d6000fd5b505050506040513d601f19601f82011682018060405250610e6d91908101906118bf565b50600081610e7b8630611082565b03905080610e8857600080fd5b91506106199050565b6000806000610ea38460400151611126565b915091506001600060088660200151901c815260200190815260200160002054610ed98560000151866020015160ff168561118b565b14949350505050565b60019392505050565b805160009060015b60088160ff16101561106457600182811c9216918201911560005b60018403811015610f9057858160020281518110610f2857fe5b6020026020010151868260020260010181518110610f4257fe5b6020026020010151604051602001610f5b929190611bbb565b60405160208183030381529060405280519060200120868281518110610f7d57fe5b6020908102919091010152600101610f0e565b5080610fe557846002846002020381518110610fa857fe5b6020026020010151610fb98361122f565b604051602001610fca929190611bbb565b60405160208183030381529060405280519060200120611041565b846002846002020381518110610ff757fe5b602002602001015185600185600202038151811061101157fe5b602002602001015160405160200161102a929190611bbb565b604051602081830303815290604052805190602001205b85600185038151811061105057fe5b602090810291909101015250600101610ef3565b508260008151811061107257fe5b6020026020010151915050919050565b60006001600160a01b0383166110a357506001600160a01b03811631610619565b6040516370a0823160e01b81526001600160a01b038416906370a08231906110cf908590600401611b25565b60206040518083038186803b1580156110e757600080fd5b505afa1580156110fb573d6000803e3d6000fd5b505050506040513d601f19601f8201168201806040525061111f91908101906119e0565b9050610619565b600080826000015160405160200161113e9190611c91565b60408051601f198184030181528282528051602091820120868201519287015190945061116e9385939201611bc9565b604051602081830303815290604052805190602001209150915091565b600081815b600881101561122657600185821c16156111e2578581600881106111b057fe5b6020020151846040516020016111c7929190611bbb565b6040516020818303038152906040528051906020012061121c565b838682600881106111ef57fe5b6020020151604051602001611205929190611bbb565b604051602081830303815290604052805190602001205b9150600101611190565b50949350505050565b6000600482166112ce5760028216611278576001821661125157506000610314565b507fad3228b676f7d3cd4284a5443f17f1962b36e491b30a40b2405849e597ba5fb5610314565b600182166112a757507fb4c11951957c6f8f642c4af61cd6b24640fec6dc7fc607ee8206a99e92410d30610314565b507f21ddb9a356815c3fac1026b6dec5df3124afbadb485c9ba5a3e3398a04b7ba85610314565b6002821661132c576001821661130557507fe58769b32a1beaf1ea27375a44095a0d1fb664ce2dd358e7fcbfb78c26a19344610314565b507f0eb01ebfc9ed27500cd4dfc979272d1f0913cc9f66540d7e8005811109e1cf2d610314565b6001821661135b57507f887c22bd8750d34016ac3c66b5ff102dacdd73f6b014e710b51e8022af9a1968610314565b507fffd70157e48063fc33c97a050f7f640233bf646cc98d9524c6b92bcf3ab56f83610314565b60405180606001604052806113956113a9565b815260200160008152602001600081525090565b6040518060e00160405280600081526020016113c36113fd565b81526020016113d06113fd565b815260006020820181905260408201526060016113eb61141b565b81526020016113f861143e565b905290565b60405180604001604052806002906020820280388339509192915050565b604051806040016040528060006001600160a01b031681526020016113f8611451565b60405180602001604052806113f861147e565b60405180604001604052806002905b61146861149d565b8152602001906001900390816114605790505090565b6040518061010001604052806008906020820280388339509192915050565b6040805160a08101909152806113f860208201600481608080388339509192915050565b600082601f8301126114d1578081fd5b6114db6040611ca0565b90508082846040850111156114ef57600080fd5b60005b60028110156115115781358352602092830192909101906001016114f2565b50505092915050565b6000610460828403121561152c578081fd5b6115366060611ca0565b905082601f83011261154757600080fd5b6115596115546008611cc7565b611ca0565b808361010085018681111561156d57600080fd5b60005b600881101561158f578235855260209485019490920191600101611570565b5091845250356020830152506115a98361012084016115b4565b604082015292915050565b60008183036103408112156115c7578182fd5b6115d16060611ca0565b9150610300808212156115e357600080fd5b6115ed60e0611ca0565b91508335825261160085602086016114c1565b602083015261161285606086016114c1565b604083015260a084013561162581611ce4565b606083015260c084013560808301526116418560e08601611763565b60a08301526116548561020086016116ea565b60c08301529082528201356020820152610320909101356040820152919050565b600060808284031215611686578081fd5b6116906020611ca0565b905082601f8301126116a157600080fd5b6116ab6080611ca0565b8083856080860111156116bd57600080fd5b60005b60048110156116df5781358452602093840193909101906001016116c0565b505082525092915050565b60006101008083850312156116fd578182fd5b6117076020611ca0565b915083601f84011261171857600080fd5b61172181611ca0565b808486848701111561173257600080fd5b600093505b600884101561175757803583526001939093019260209283019201611737565b50835250909392505050565b6000610120808385031215611776578182fd5b6117806040611ca0565b9150823561178d81611ce4565b8252603f8301841361179e57600080fd5b6117ab6115546002611cc7565b80602085018684870111156117bf57600080fd5b600093505b60028410156117ee576117d78782611675565b8352600193909301926020909201916080016117c4565b50602084015250909392505050565b600080600060608486031215611811578283fd5b833567ffffffffffffffff80821115611828578485fd5b81860187601f820112611839578586fd5b8035925081831115611849578586fd5b6020915061185a8283850201611ca0565b83815282810190828401610340808702850186018c101561187957898afd5b8994505b868510156118a55761188f8c836115b4565b845260019490940193928501929081019061187d565b50909a938901359950505060409096013595509350505050565b6000602082840312156118d0578081fd5b815180151581146103a9578182fd5b6000602082840312156118f0578081fd5b5035919050565b60008060006060848603121561190b578081fd5b833561191681611ce4565b95602085013595506040909401359392505050565b6000806108c0838503121561193e578182fd5b611948848461151a565b915061195884610460850161151a565b90509250929050565b600081830360a0811215611973578182fd5b61197d6060611ca0565b606082121561198a578283fd5b6119946060611ca0565b915083356119a181611ce4565b825260208401356119b181611ce4565b602083810191909152604085810135818501529282526060850135908201526080909301359083015250919050565b6000602082840312156119f1578081fd5b5051919050565b815260200190565b8060005b6002811015611a23578151845260209384019390910190600101611a04565b50505050565b80516001600160a01b031682526020808201516000918401905b6002831015611a8e5780515160009083905b6004831015611a7557805182526001929092019160209182019101611a55565b5050506001929092019160809190910190602001611a43565b5050505050565b805182526020810151611aab6020840182611a00565b506040810151611abe6060840182611a00565b5060608101516001600160a01b031660a083810191909152608082015160c0840152810151611af060e0840182611a29565b5060c08101515161020083019060005b6008811015611a8e57611b148383516119f8565b925060209190910190600101611b00565b6001600160a01b0391909116815260200190565b6001600160a01b039384168152919092166020820152604081019190915260600190565b6001600160a01b03958616815293909416602084015260408301919091526060820152608081019190915260a00190565b6001600160a01b03929092168252602082015260400190565b901515815260200190565b90815260200190565b918252602082015260400190565b9283526020830191909152604082015260600190565b6020808252818101527f4f776e61626c653a2063616c6c6572206973206e6f7420746865206f776e6572604082015260600190565b600061034082019050611c28828451611a95565b60208301516103008301526040909201516103209091015290565b815180516001600160a01b0390811683526020808301519091168184015260409182015182840152830151606083015290910151608082015260a00190565b61012081016106198284611a29565b61030081016106198284611a95565b60405181810167ffffffffffffffff81118282101715611cbf57600080fd5b604052919050565b600067ffffffffffffffff821115611cdd578081fd5b5060200290565b6001600160a01b0381168114611cf957600080fd5b5056fea264697066735822122003300c82d9a3765e5666e3472c7f5f0ed3aa1e8b39e00c185e66930d057ee55b64736f6c63430006010033",
  "source": "pragma solidity >= 0.6.0;\npragma experimental ABIEncoderV2;\n\n\nimport \"./lib/IERC20.sol\";\nimport \"./lib/Ownable.sol\";\nimport \"./lib/AbstractERC20.sol\";\nimport \"./lib/MerkleProof.sol\";\n\n\ncontract Zeropool is Ownable{\n    using AbstractERC20 for IERC20;\n\n    uint256 constant DEPOSIT_EXISTS = 0xffffffffffffffffffffffffffffffffffffffffffffffffffffffffffffffff;\n    uint256 constant DEPOSIT_EXPIRES_BLOCKS = 500;\n    uint256 constant CHALLENGE_EXPIRES_BLOCKS = 5760;\n    uint256 constant BN254_ORDER = 16798108731015832284940804142231733909759579603404752749028378864165570215949;\n    uint256 constant MAX_AMOUNT = 1766847064778384329583297500742918515827483896875618958121606201292619776;\n    bytes32 constant EMPTY_BLOCK_HASH = 0x9867cc5f7f196b93bae1e27e6320742445d290f2263827498b54fec539f756af;\n\n    event Deposit();\n\n    struct Message {\n        uint256[4] data;\n    }\n\n    struct TxExternalFields {\n        address owner;\n        Message[2] message;\n    }\n\n    struct Proof {\n        uint256[8] data;\n    }\n\n    struct VK {\n        uint256[] data;\n    }\n\n    struct Tx {\n        uint256 rootptr;\n        uint256[2] nullifier;\n        uint256[2] utxo;\n        IERC20 token;\n        uint256 delta;\n        TxExternalFields ext;\n        Proof proof;\n    }\n\n    struct BlockItem {\n        Tx ctx;\n        uint256 new_root;\n        uint256 deposit_blocknumber;\n    }\n    struct BlockItemNote {\n        bytes32[8] proof;\n        uint256 id;\n        BlockItem item;\n    }\n\n    struct UTXO {\n        address owner;\n        IERC20 token;\n        uint256 amount;\n    }\n\n    struct PayNote {\n        UTXO utxo;\n        uint256 blocknumber;\n        uint256 txhash;\n    }\n\n\n    mapping (uint256 => bytes32) public rollup_block;\n    mapping (bytes32 => uint256) public deposit_state;\n    mapping (bytes32 => uint256) public withdraw_state;\n\n    \n\n    uint256 public rollup_tx_num;\n    VK tx_vk;\n    VK tree_update_vk;\n    \n\n    function blockItemNoteVerify(BlockItemNote memory note) internal view returns(bool) {\n        (bytes32 itemhash, bytes32 _) = blockItemHash(note.item);\n        return MerkleProof.keccak256MerkleProof(note.proof, note.id & 0xff, itemhash) == rollup_block[note.id>>8];\n    }\n\n    function blockItemHash(BlockItem memory item) internal pure returns(bytes32 itemhash, bytes32 txhash) {\n        txhash = keccak256(abi.encode(item.ctx));\n        itemhash = keccak256(abi.encode(txhash, item.new_root, item.deposit_blocknumber));\n    }\n\n    function groth16verify(VK memory vk, Proof memory proof, uint256[] memory inputs) internal view returns(bool) {\n        // TODO bind groth16verifier\n        return true;\n    }\n\n    constructor() public {\n        rollup_block[0] = EMPTY_BLOCK_HASH;\n        rollup_tx_num = 256;\n    }\n\n\n\n    function deposit(IERC20 token, uint256 amount, bytes32 txhash) public payable returns(bool) {\n        uint256 _amount = token.abstractReceive(amount);\n        bytes32 deposit_hash = keccak256(abi.encode(msg.sender, token, _amount, block.number, txhash));\n        deposit_state[deposit_hash] = DEPOSIT_EXISTS;\n        emit Deposit();\n        return true;\n    }\n\n    function depositCancel(PayNote memory d) public payable returns(bool) {\n        bytes32 deposit_hash = keccak256(abi.encode(d));\n        require(deposit_state[deposit_hash] >= rollup_tx_num);\n        require(d.blocknumber < block.number - DEPOSIT_EXPIRES_BLOCKS);\n        delete deposit_state[deposit_hash];\n        d.utxo.token.abstractTransfer(d.utxo.owner, d.utxo.amount);\n        return true;\n    }\n\n    function withdraw(PayNote memory w) public returns(bool) {\n        bytes32 withdraw_hash = keccak256(abi.encode(w));\n        require(withdraw_state[withdraw_hash] < rollup_tx_num);\n        require(w.blocknumber < block.number - CHALLENGE_EXPIRES_BLOCKS);\n        delete withdraw_state[withdraw_hash];\n        w.utxo.token.abstractTransfer(w.utxo.owner, w.utxo.amount);\n        return true;\n    }\n\n    function publishBlock(BlockItem[] memory items, uint rollup_cur_block_num, uint blocknumber_expires) public onlyOwner returns(bool) {\n        require(rollup_cur_block_num == rollup_tx_num >> 8);\n        require(block.number < blocknumber_expires);\n        uint256 nitems = items.length;\n        require(nitems > 0 && nitems <= 256);\n        bytes32[] memory hashes = new bytes32[](nitems);\n        for(uint i = 0; i<nitems; i++) {\n            BlockItem memory item = items[i];\n            bytes32 itemhash = keccak256(abi.encode(item));\n            bytes32 txhash = keccak256(abi.encode(item.ctx));\n            if (item.ctx.delta == 0) {\n                require(item.deposit_blocknumber == 0);\n                require(item.ctx.token == IERC20(0));\n                require(item.ctx.ext.owner == address(0));\n            } else if (item.ctx.delta < MAX_AMOUNT) {\n                bytes32 deposit_hash = keccak256(abi.encode(item.ctx.ext.owner, item.ctx.token, item.ctx.delta, item.deposit_blocknumber, txhash));\n                require(deposit_state[deposit_hash]==DEPOSIT_EXISTS);\n                deposit_state[deposit_hash] = rollup_tx_num+i;\n            } else if (item.ctx.delta > BN254_ORDER-MAX_AMOUNT && item.ctx.delta < BN254_ORDER) {\n                require(item.deposit_blocknumber == 0);\n                bytes32 withdraw_hash = keccak256(abi.encode(item.ctx.ext.owner, item.ctx.token, BN254_ORDER-item.ctx.delta, block.number, txhash));\n                require(withdraw_state[withdraw_hash] == 0);\n                withdraw_state[withdraw_hash] = rollup_tx_num + i;\n            } else revert();\n\n            hashes[i] = itemhash;\n        }\n        rollup_block[rollup_tx_num >> 8] = MerkleProof.keccak256MerkleTree(hashes);\n        rollup_tx_num += 256;\n        return true;\n    }\n\n    function stopRollup() public {\n        //TODO implement rollup stop logic\n    }\n\n    function challengeTx(BlockItemNote memory cur, BlockItemNote memory base) public returns(bool) {\n        require(blockItemNoteVerify(cur) && blockItemNoteVerify(base));\n        require(cur.item.ctx.rootptr == base.id);\n        uint256[] memory inputs = new uint256[](8);\n        inputs[0] = base.item.new_root;\n        inputs[1] = cur.item.ctx.nullifier[0];\n        inputs[2] = cur.item.ctx.nullifier[1];\n        inputs[3] = cur.item.ctx.utxo[0];\n        inputs[4] = cur.item.ctx.utxo[1];\n        inputs[5] = uint256(address(cur.item.ctx.token));\n        inputs[6] = cur.item.ctx.delta;\n        inputs[7] = uint256(keccak256(abi.encode(cur.item.ctx.ext)));\n        require(!groth16verify(tx_vk, cur.item.ctx.proof, inputs) || cur.item.ctx.rootptr >= cur.id);\n        stopRollup();\n        return true;\n    }\n\n    function challengeUTXOTreeUpdate(BlockItemNote memory cur, BlockItemNote memory prev) public returns(bool) {\n        require(blockItemNoteVerify(cur) && blockItemNoteVerify(prev));\n        require(cur.id == prev.id+1);\n        uint256[] memory inputs = new uint256[](5);\n        inputs[0] = prev.item.new_root;\n        inputs[1] = cur.item.new_root;\n        inputs[2] = prev.id;\n        inputs[3] = cur.item.ctx.utxo[0];\n        inputs[4] = cur.item.ctx.utxo[1];\n        require(!groth16verify(tree_update_vk, cur.item.ctx.proof, inputs));\n        stopRollup();\n        return true;\n    }\n\n    function challengeDoubleSpend(BlockItemNote memory cur, BlockItemNote memory prev) public returns(bool) {\n        require(blockItemNoteVerify(cur) && blockItemNoteVerify(prev));\n        require(cur.id > prev.id);\n        require(cur.item.ctx.nullifier[0] == prev.item.ctx.nullifier[0] ||\n            cur.item.ctx.nullifier[0] == prev.item.ctx.nullifier[1] ||\n            cur.item.ctx.nullifier[1] == prev.item.ctx.nullifier[0] ||\n            cur.item.ctx.nullifier[1] == prev.item.ctx.nullifier[1]);\n        stopRollup();\n        return true;\n    }\n\n\n\n}\n",
  "sourcePath": "/Users/raptor/Desktop/projects/zp-chrome-extension/zeropool/smart-contracts/contracts/ZeroPool.sol",
  "compiler": {
    "name": "solc",
    "version": "0.6.1+commit.e6f7d5a4.Emscripten.clang"
  },
  "schemaVersion": "3.0.23",
  "updatedAt": "2020-02-02T23:47:13.306Z",
  "networkType": "ethereum",
  "devdoc": {
    "methods": {}
  },
  "userdoc": {
    "methods": {}
  }
}