{
  "contractName": "Zeropool",
  "abi": [
    {
      "inputs": [],
      "stateMutability": "nonpayable",
      "type": "constructor"
    },
    {
      "anonymous": false,
      "inputs": [],
      "name": "Deposit",
      "type": "event"
    },
    {
      "anonymous": false,
      "inputs": [],
      "name": "NewBlockPack",
      "type": "event"
    },
    {
      "inputs": [
        {
          "internalType": "bytes32",
          "name": "",
          "type": "bytes32"
        }
      ],
      "name": "deposit_state",
      "outputs": [
        {
          "internalType": "uint256",
          "name": "",
          "type": "uint256"
        }
      ],
      "stateMutability": "view",
      "type": "function",
      "constant": true
    },
    {
      "inputs": [],
      "name": "owner",
      "outputs": [
        {
          "internalType": "address",
          "name": "",
          "type": "address"
        }
      ],
      "stateMutability": "view",
      "type": "function",
      "constant": true
    },
    {
      "inputs": [
        {
          "internalType": "uint256",
          "name": "",
          "type": "uint256"
        }
      ],
      "name": "rollup_block",
      "outputs": [
        {
          "internalType": "bytes32",
          "name": "",
          "type": "bytes32"
        }
      ],
      "stateMutability": "view",
      "type": "function",
      "constant": true
    },
    {
      "inputs": [],
      "name": "rollup_tx_num",
      "outputs": [
        {
          "internalType": "uint256",
          "name": "",
          "type": "uint256"
        }
      ],
      "stateMutability": "view",
      "type": "function",
      "constant": true
    },
    {
      "inputs": [
        {
          "internalType": "bytes32",
          "name": "",
          "type": "bytes32"
        }
      ],
      "name": "withdraw_state",
      "outputs": [
        {
          "internalType": "uint256",
          "name": "",
          "type": "uint256"
        }
      ],
      "stateMutability": "view",
      "type": "function",
      "constant": true
    },
    {
      "inputs": [
        {
          "internalType": "contract IERC20",
          "name": "token",
          "type": "address"
        },
        {
          "internalType": "uint256",
          "name": "amount",
          "type": "uint256"
        },
        {
          "internalType": "bytes32",
          "name": "txhash",
          "type": "bytes32"
        }
      ],
      "name": "deposit",
      "outputs": [
        {
          "internalType": "bool",
          "name": "",
          "type": "bool"
        }
      ],
      "stateMutability": "payable",
      "type": "function",
      "payable": true
    },
    {
      "inputs": [
        {
          "components": [
            {
              "components": [
                {
                  "internalType": "address",
                  "name": "owner",
                  "type": "address"
                },
                {
                  "internalType": "contract IERC20",
                  "name": "token",
                  "type": "address"
                },
                {
                  "internalType": "uint256",
                  "name": "amount",
                  "type": "uint256"
                }
              ],
              "internalType": "struct Zeropool.UTXO",
              "name": "utxo",
              "type": "tuple"
            },
            {
              "internalType": "uint256",
              "name": "blocknumber",
              "type": "uint256"
            },
            {
              "internalType": "uint256",
              "name": "txhash",
              "type": "uint256"
            }
          ],
          "internalType": "struct Zeropool.PayNote",
          "name": "d",
          "type": "tuple"
        }
      ],
      "name": "depositCancel",
      "outputs": [
        {
          "internalType": "bool",
          "name": "",
          "type": "bool"
        }
      ],
      "stateMutability": "payable",
      "type": "function",
      "payable": true
    },
    {
      "inputs": [
        {
          "components": [
            {
              "components": [
                {
                  "internalType": "address",
                  "name": "owner",
                  "type": "address"
                },
                {
                  "internalType": "contract IERC20",
                  "name": "token",
                  "type": "address"
                },
                {
                  "internalType": "uint256",
                  "name": "amount",
                  "type": "uint256"
                }
              ],
              "internalType": "struct Zeropool.UTXO",
              "name": "utxo",
              "type": "tuple"
            },
            {
              "internalType": "uint256",
              "name": "blocknumber",
              "type": "uint256"
            },
            {
              "internalType": "uint256",
              "name": "txhash",
              "type": "uint256"
            }
          ],
          "internalType": "struct Zeropool.PayNote",
          "name": "w",
          "type": "tuple"
        }
      ],
      "name": "withdraw",
      "outputs": [
        {
          "internalType": "bool",
          "name": "",
          "type": "bool"
        }
      ],
      "stateMutability": "nonpayable",
      "type": "function"
    },
    {
      "inputs": [
        {
          "components": [
            {
              "components": [
                {
                  "internalType": "uint256",
                  "name": "rootptr",
                  "type": "uint256"
                },
                {
                  "internalType": "uint256[2]",
                  "name": "nullifier",
                  "type": "uint256[2]"
                },
                {
                  "internalType": "uint256[2]",
                  "name": "utxo",
                  "type": "uint256[2]"
                },
                {
                  "internalType": "contract IERC20",
                  "name": "token",
                  "type": "address"
                },
                {
                  "internalType": "uint256",
                  "name": "delta",
                  "type": "uint256"
                },
                {
                  "components": [
                    {
                      "internalType": "address",
                      "name": "owner",
                      "type": "address"
                    },
                    {
                      "components": [
                        {
                          "internalType": "uint256[4]",
                          "name": "data",
                          "type": "uint256[4]"
                        }
                      ],
                      "internalType": "struct Zeropool.Message[2]",
                      "name": "message",
                      "type": "tuple[2]"
                    }
                  ],
                  "internalType": "struct Zeropool.TxExternalFields",
                  "name": "ext",
                  "type": "tuple"
                },
                {
                  "components": [
                    {
                      "internalType": "uint256[8]",
                      "name": "data",
                      "type": "uint256[8]"
                    }
                  ],
                  "internalType": "struct Zeropool.Proof",
                  "name": "proof",
                  "type": "tuple"
                }
              ],
              "internalType": "struct Zeropool.Tx",
              "name": "ctx",
              "type": "tuple"
            },
            {
              "internalType": "uint256",
              "name": "new_root",
              "type": "uint256"
            },
            {
              "internalType": "uint256",
              "name": "deposit_blocknumber",
              "type": "uint256"
            }
          ],
          "internalType": "struct Zeropool.BlockItem[]",
          "name": "items",
          "type": "tuple[]"
        },
        {
          "internalType": "uint256",
          "name": "rollup_cur_block_num",
          "type": "uint256"
        },
        {
          "internalType": "uint256",
          "name": "blocknumber_expires",
          "type": "uint256"
        }
      ],
      "name": "publishBlock",
      "outputs": [
        {
          "internalType": "bool",
          "name": "",
          "type": "bool"
        }
      ],
      "stateMutability": "nonpayable",
      "type": "function"
    },
    {
      "inputs": [],
      "name": "stopRollup",
      "outputs": [],
      "stateMutability": "nonpayable",
      "type": "function"
    },
    {
      "inputs": [
        {
          "components": [
            {
              "internalType": "bytes32[8]",
              "name": "proof",
              "type": "bytes32[8]"
            },
            {
              "internalType": "uint256",
              "name": "id",
              "type": "uint256"
            },
            {
              "components": [
                {
                  "components": [
                    {
                      "internalType": "uint256",
                      "name": "rootptr",
                      "type": "uint256"
                    },
                    {
                      "internalType": "uint256[2]",
                      "name": "nullifier",
                      "type": "uint256[2]"
                    },
                    {
                      "internalType": "uint256[2]",
                      "name": "utxo",
                      "type": "uint256[2]"
                    },
                    {
                      "internalType": "contract IERC20",
                      "name": "token",
                      "type": "address"
                    },
                    {
                      "internalType": "uint256",
                      "name": "delta",
                      "type": "uint256"
                    },
                    {
                      "components": [
                        {
                          "internalType": "address",
                          "name": "owner",
                          "type": "address"
                        },
                        {
                          "components": [
                            {
                              "internalType": "uint256[4]",
                              "name": "data",
                              "type": "uint256[4]"
                            }
                          ],
                          "internalType": "struct Zeropool.Message[2]",
                          "name": "message",
                          "type": "tuple[2]"
                        }
                      ],
                      "internalType": "struct Zeropool.TxExternalFields",
                      "name": "ext",
                      "type": "tuple"
                    },
                    {
                      "components": [
                        {
                          "internalType": "uint256[8]",
                          "name": "data",
                          "type": "uint256[8]"
                        }
                      ],
                      "internalType": "struct Zeropool.Proof",
                      "name": "proof",
                      "type": "tuple"
                    }
                  ],
                  "internalType": "struct Zeropool.Tx",
                  "name": "ctx",
                  "type": "tuple"
                },
                {
                  "internalType": "uint256",
                  "name": "new_root",
                  "type": "uint256"
                },
                {
                  "internalType": "uint256",
                  "name": "deposit_blocknumber",
                  "type": "uint256"
                }
              ],
              "internalType": "struct Zeropool.BlockItem",
              "name": "item",
              "type": "tuple"
            }
          ],
          "internalType": "struct Zeropool.BlockItemNote",
          "name": "cur",
          "type": "tuple"
        },
        {
          "components": [
            {
              "internalType": "bytes32[8]",
              "name": "proof",
              "type": "bytes32[8]"
            },
            {
              "internalType": "uint256",
              "name": "id",
              "type": "uint256"
            },
            {
              "components": [
                {
                  "components": [
                    {
                      "internalType": "uint256",
                      "name": "rootptr",
                      "type": "uint256"
                    },
                    {
                      "internalType": "uint256[2]",
                      "name": "nullifier",
                      "type": "uint256[2]"
                    },
                    {
                      "internalType": "uint256[2]",
                      "name": "utxo",
                      "type": "uint256[2]"
                    },
                    {
                      "internalType": "contract IERC20",
                      "name": "token",
                      "type": "address"
                    },
                    {
                      "internalType": "uint256",
                      "name": "delta",
                      "type": "uint256"
                    },
                    {
                      "components": [
                        {
                          "internalType": "address",
                          "name": "owner",
                          "type": "address"
                        },
                        {
                          "components": [
                            {
                              "internalType": "uint256[4]",
                              "name": "data",
                              "type": "uint256[4]"
                            }
                          ],
                          "internalType": "struct Zeropool.Message[2]",
                          "name": "message",
                          "type": "tuple[2]"
                        }
                      ],
                      "internalType": "struct Zeropool.TxExternalFields",
                      "name": "ext",
                      "type": "tuple"
                    },
                    {
                      "components": [
                        {
                          "internalType": "uint256[8]",
                          "name": "data",
                          "type": "uint256[8]"
                        }
                      ],
                      "internalType": "struct Zeropool.Proof",
                      "name": "proof",
                      "type": "tuple"
                    }
                  ],
                  "internalType": "struct Zeropool.Tx",
                  "name": "ctx",
                  "type": "tuple"
                },
                {
                  "internalType": "uint256",
                  "name": "new_root",
                  "type": "uint256"
                },
                {
                  "internalType": "uint256",
                  "name": "deposit_blocknumber",
                  "type": "uint256"
                }
              ],
              "internalType": "struct Zeropool.BlockItem",
              "name": "item",
              "type": "tuple"
            }
          ],
          "internalType": "struct Zeropool.BlockItemNote",
          "name": "base",
          "type": "tuple"
        }
      ],
      "name": "challengeTx",
      "outputs": [
        {
          "internalType": "bool",
          "name": "",
          "type": "bool"
        }
      ],
      "stateMutability": "nonpayable",
      "type": "function"
    },
    {
      "inputs": [
        {
          "components": [
            {
              "internalType": "bytes32[8]",
              "name": "proof",
              "type": "bytes32[8]"
            },
            {
              "internalType": "uint256",
              "name": "id",
              "type": "uint256"
            },
            {
              "components": [
                {
                  "components": [
                    {
                      "internalType": "uint256",
                      "name": "rootptr",
                      "type": "uint256"
                    },
                    {
                      "internalType": "uint256[2]",
                      "name": "nullifier",
                      "type": "uint256[2]"
                    },
                    {
                      "internalType": "uint256[2]",
                      "name": "utxo",
                      "type": "uint256[2]"
                    },
                    {
                      "internalType": "contract IERC20",
                      "name": "token",
                      "type": "address"
                    },
                    {
                      "internalType": "uint256",
                      "name": "delta",
                      "type": "uint256"
                    },
                    {
                      "components": [
                        {
                          "internalType": "address",
                          "name": "owner",
                          "type": "address"
                        },
                        {
                          "components": [
                            {
                              "internalType": "uint256[4]",
                              "name": "data",
                              "type": "uint256[4]"
                            }
                          ],
                          "internalType": "struct Zeropool.Message[2]",
                          "name": "message",
                          "type": "tuple[2]"
                        }
                      ],
                      "internalType": "struct Zeropool.TxExternalFields",
                      "name": "ext",
                      "type": "tuple"
                    },
                    {
                      "components": [
                        {
                          "internalType": "uint256[8]",
                          "name": "data",
                          "type": "uint256[8]"
                        }
                      ],
                      "internalType": "struct Zeropool.Proof",
                      "name": "proof",
                      "type": "tuple"
                    }
                  ],
                  "internalType": "struct Zeropool.Tx",
                  "name": "ctx",
                  "type": "tuple"
                },
                {
                  "internalType": "uint256",
                  "name": "new_root",
                  "type": "uint256"
                },
                {
                  "internalType": "uint256",
                  "name": "deposit_blocknumber",
                  "type": "uint256"
                }
              ],
              "internalType": "struct Zeropool.BlockItem",
              "name": "item",
              "type": "tuple"
            }
          ],
          "internalType": "struct Zeropool.BlockItemNote",
          "name": "cur",
          "type": "tuple"
        },
        {
          "components": [
            {
              "internalType": "bytes32[8]",
              "name": "proof",
              "type": "bytes32[8]"
            },
            {
              "internalType": "uint256",
              "name": "id",
              "type": "uint256"
            },
            {
              "components": [
                {
                  "components": [
                    {
                      "internalType": "uint256",
                      "name": "rootptr",
                      "type": "uint256"
                    },
                    {
                      "internalType": "uint256[2]",
                      "name": "nullifier",
                      "type": "uint256[2]"
                    },
                    {
                      "internalType": "uint256[2]",
                      "name": "utxo",
                      "type": "uint256[2]"
                    },
                    {
                      "internalType": "contract IERC20",
                      "name": "token",
                      "type": "address"
                    },
                    {
                      "internalType": "uint256",
                      "name": "delta",
                      "type": "uint256"
                    },
                    {
                      "components": [
                        {
                          "internalType": "address",
                          "name": "owner",
                          "type": "address"
                        },
                        {
                          "components": [
                            {
                              "internalType": "uint256[4]",
                              "name": "data",
                              "type": "uint256[4]"
                            }
                          ],
                          "internalType": "struct Zeropool.Message[2]",
                          "name": "message",
                          "type": "tuple[2]"
                        }
                      ],
                      "internalType": "struct Zeropool.TxExternalFields",
                      "name": "ext",
                      "type": "tuple"
                    },
                    {
                      "components": [
                        {
                          "internalType": "uint256[8]",
                          "name": "data",
                          "type": "uint256[8]"
                        }
                      ],
                      "internalType": "struct Zeropool.Proof",
                      "name": "proof",
                      "type": "tuple"
                    }
                  ],
                  "internalType": "struct Zeropool.Tx",
                  "name": "ctx",
                  "type": "tuple"
                },
                {
                  "internalType": "uint256",
                  "name": "new_root",
                  "type": "uint256"
                },
                {
                  "internalType": "uint256",
                  "name": "deposit_blocknumber",
                  "type": "uint256"
                }
              ],
              "internalType": "struct Zeropool.BlockItem",
              "name": "item",
              "type": "tuple"
            }
          ],
          "internalType": "struct Zeropool.BlockItemNote",
          "name": "prev",
          "type": "tuple"
        }
      ],
      "name": "challengeUTXOTreeUpdate",
      "outputs": [
        {
          "internalType": "bool",
          "name": "",
          "type": "bool"
        }
      ],
      "stateMutability": "nonpayable",
      "type": "function"
    },
    {
      "inputs": [
        {
          "components": [
            {
              "internalType": "bytes32[8]",
              "name": "proof",
              "type": "bytes32[8]"
            },
            {
              "internalType": "uint256",
              "name": "id",
              "type": "uint256"
            },
            {
              "components": [
                {
                  "components": [
                    {
                      "internalType": "uint256",
                      "name": "rootptr",
                      "type": "uint256"
                    },
                    {
                      "internalType": "uint256[2]",
                      "name": "nullifier",
                      "type": "uint256[2]"
                    },
                    {
                      "internalType": "uint256[2]",
                      "name": "utxo",
                      "type": "uint256[2]"
                    },
                    {
                      "internalType": "contract IERC20",
                      "name": "token",
                      "type": "address"
                    },
                    {
                      "internalType": "uint256",
                      "name": "delta",
                      "type": "uint256"
                    },
                    {
                      "components": [
                        {
                          "internalType": "address",
                          "name": "owner",
                          "type": "address"
                        },
                        {
                          "components": [
                            {
                              "internalType": "uint256[4]",
                              "name": "data",
                              "type": "uint256[4]"
                            }
                          ],
                          "internalType": "struct Zeropool.Message[2]",
                          "name": "message",
                          "type": "tuple[2]"
                        }
                      ],
                      "internalType": "struct Zeropool.TxExternalFields",
                      "name": "ext",
                      "type": "tuple"
                    },
                    {
                      "components": [
                        {
                          "internalType": "uint256[8]",
                          "name": "data",
                          "type": "uint256[8]"
                        }
                      ],
                      "internalType": "struct Zeropool.Proof",
                      "name": "proof",
                      "type": "tuple"
                    }
                  ],
                  "internalType": "struct Zeropool.Tx",
                  "name": "ctx",
                  "type": "tuple"
                },
                {
                  "internalType": "uint256",
                  "name": "new_root",
                  "type": "uint256"
                },
                {
                  "internalType": "uint256",
                  "name": "deposit_blocknumber",
                  "type": "uint256"
                }
              ],
              "internalType": "struct Zeropool.BlockItem",
              "name": "item",
              "type": "tuple"
            }
          ],
          "internalType": "struct Zeropool.BlockItemNote",
          "name": "cur",
          "type": "tuple"
        },
        {
          "components": [
            {
              "internalType": "bytes32[8]",
              "name": "proof",
              "type": "bytes32[8]"
            },
            {
              "internalType": "uint256",
              "name": "id",
              "type": "uint256"
            },
            {
              "components": [
                {
                  "components": [
                    {
                      "internalType": "uint256",
                      "name": "rootptr",
                      "type": "uint256"
                    },
                    {
                      "internalType": "uint256[2]",
                      "name": "nullifier",
                      "type": "uint256[2]"
                    },
                    {
                      "internalType": "uint256[2]",
                      "name": "utxo",
                      "type": "uint256[2]"
                    },
                    {
                      "internalType": "contract IERC20",
                      "name": "token",
                      "type": "address"
                    },
                    {
                      "internalType": "uint256",
                      "name": "delta",
                      "type": "uint256"
                    },
                    {
                      "components": [
                        {
                          "internalType": "address",
                          "name": "owner",
                          "type": "address"
                        },
                        {
                          "components": [
                            {
                              "internalType": "uint256[4]",
                              "name": "data",
                              "type": "uint256[4]"
                            }
                          ],
                          "internalType": "struct Zeropool.Message[2]",
                          "name": "message",
                          "type": "tuple[2]"
                        }
                      ],
                      "internalType": "struct Zeropool.TxExternalFields",
                      "name": "ext",
                      "type": "tuple"
                    },
                    {
                      "components": [
                        {
                          "internalType": "uint256[8]",
                          "name": "data",
                          "type": "uint256[8]"
                        }
                      ],
                      "internalType": "struct Zeropool.Proof",
                      "name": "proof",
                      "type": "tuple"
                    }
                  ],
                  "internalType": "struct Zeropool.Tx",
                  "name": "ctx",
                  "type": "tuple"
                },
                {
                  "internalType": "uint256",
                  "name": "new_root",
                  "type": "uint256"
                },
                {
                  "internalType": "uint256",
                  "name": "deposit_blocknumber",
                  "type": "uint256"
                }
              ],
              "internalType": "struct Zeropool.BlockItem",
              "name": "item",
              "type": "tuple"
            }
          ],
          "internalType": "struct Zeropool.BlockItemNote",
          "name": "prev",
          "type": "tuple"
        }
      ],
      "name": "challengeDoubleSpend",
      "outputs": [
        {
          "internalType": "bool",
          "name": "",
          "type": "bool"
        }
      ],
      "stateMutability": "nonpayable",
      "type": "function"
    }
  ],
  "bytecode": "0x608060405234801561001057600080fd5b50600080546001600160a01b03191633178155805260016020527f9867cc5f7f196b93bae1e27e6320742445d290f2263827498b54fec539f756af7fa6eef7e35abe7026729641147f7915573c7e97b47efa546f5f6e3230263bcb4955610100600455611eb7806100826000396000f3fe6080604052600436106100c25760003560e01c8063a7772e681161007f578063c991abe111610059578063c991abe1146101e7578063cfb7b71614610207578063d5657e3d14610227578063e27d2a8714610247576100c2565b8063a7772e6814610187578063aff925a2146101a7578063bc327ca2146101c7576100c2565b8063116e9b73146100c75780631790acba146100fd57806326b3293f1461011d5780632d340640146101305780638da5cb5b146101505780639b78ec0714610172575b600080fd5b3480156100d357600080fd5b506100e76100e2366004611997565b61025e565b6040516100f49190611c5c565b60405180910390f35b61011061010b366004611a19565b610270565b6040516100f49190611c51565b61011061012b3660046119af565b610319565b34801561013c57600080fd5b5061011061014b3660046119e3565b6103b0565b34801561015c57600080fd5b5061016561061f565b6040516100f49190611bcf565b34801561017e57600080fd5b506100e761062e565b34801561019357600080fd5b506100e76101a2366004611997565b610634565b3480156101b357600080fd5b506101106101c23660046119e3565b610646565b3480156101d357600080fd5b506101106101e23660046119e3565b610711565b3480156101f357600080fd5b506100e7610202366004611997565b61089e565b34801561021357600080fd5b50610110610222366004611a19565b6108b0565b34801561023357600080fd5b506101106102423660046118ba565b61094c565b34801561025357600080fd5b5061025c610d74565b005b60016020526000908152604090205481565b600080826040516020016102849190611dc5565b604051602081830303815290604052805190602001209050600454600260008381526020019081526020016000205410156102be57600080fd5b6101f443038360200151106102d257600080fd5b600081815260026020908152604080832092909255845180519281015191015161030d926001600160a01b039091169163ffffffff610d7616565b5060019150505b919050565b6000806103356001600160a01b0386168563ffffffff610e7816565b905060003386834387604051602001610352959493929190611c07565b60408051601f1981840301815282825280516020918201206000818152600290925291812060001990559092507fed21248cb703b524cc0029bb8669df941baca560163a3bc6ad184e7e9c26807091a16001925050505b9392505050565b60006103bb83610f50565b80156103cb57506103cb82610f50565b6103d457600080fd5b602082015160408401515151146103ea57600080fd5b604080516008808252610120820190925260609160208201610100803883390190505090508260400151602001518160008151811061042557fe5b60209081029190910181019190915260408501515101515181518290600190811061044c57fe5b6020908102919091018101919091526040850151510151600160200201518160028151811061047757fe5b60209081029190910101526040848101515101515181518290600390811061049b57fe5b602090810291909101015260408085015151015160016020020151816004815181106104c357fe5b602002602001018181525050836040015160000151606001516001600160a01b0316816005815181106104f257fe5b602002602001018181525050836040015160000151608001518160068151811061051857fe5b60200260200101818152505083604001516000015160a001516040516020016105419190611e04565b6040516020818303038152906040528051906020012060001c8160078151811061056757fe5b6020026020010181815250506105ec6005604051806020016040529081600082018054806020026020016040519081016040528092919081815260200182805480156105d257602002820191906000526020600020905b8154815260200190600101908083116105be575b5050509190925250505060408601515160c0015183610fa1565b1580610602575060208401516040850151515110155b61060b57600080fd5b610613610d74565b60019150505b92915050565b6000546001600160a01b031690565b60045481565b60026020526000908152604090205481565b600061065183610f50565b8015610661575061066182610f50565b61066a57600080fd5b816020015183602001511161067e57600080fd5b6040828101515160209081015151918501515101515114806106b55750604082810151516020908101518101519185015151015151145b806106d55750604082810151516020908101515191850151518101510151145b806106f757506040828101515160209081015181015191850151518101510151145b61070057600080fd5b610708610d74565b50600192915050565b600061071c83610f50565b801561072c575061072c82610f50565b61073557600080fd5b816020015160010183602001511461074c57600080fd5b60408051600580825260c082019092526060916020820160a0803883390190505090508260400151602001518160008151811061078557fe5b602002602001018181525050836040015160200151816001815181106107a757fe5b6020026020010181815250508260200151816002815181106107c557fe5b6020908102919091010152604084810151510151518151829060039081106107e957fe5b6020908102919091010152604080850151510151600160200201518160048151811061081157fe5b6020026020010181815250506108946006604051806020016040529081600082018054806020026020016040519081016040528092919081815260200182805480156105d257602002820191906000526020600020908154815260200190600101908083116105be575050509190925250505060408601515160c0015183610fa1565b1561060b57600080fd5b60036020526000908152604090205481565b600080826040516020016108c49190611dc5565b6040516020818303038152906040528051906020012090506004546003600083815260200190815260200160002054106108fd57600080fd5b611680430383602001511061091157600080fd5b600081815260036020908152604080832092909255845180519281015191015161030d926001600160a01b039091169163ffffffff610d7616565b600080546001600160a01b031633146109805760405162461bcd60e51b815260040161097790611cda565b60405180910390fd5b60045460081c83146109a45760405162461bcd60e51b815260040161097790611d2a565b8143106109c35760405162461bcd60e51b815260040161097790611d0f565b835180158015906109d657506101008111155b6109df57600080fd5b606081604051908082528060200260200182016040528015610a0b578160200160208202803883390190505b50905060005b82811015610d1557610a21611441565b878281518110610a2d57fe5b60200260200101519050600081604051602001610a4a9190611d96565b60408051601f198184030181529082905280516020918201208451909350600092610a759201611e13565b60405160208183030381529060405280519060200120905082600001516080015160001415610b1e57604083015115610ac05760405162461bcd60e51b815260040161097790611ca4565b8251606001516001600160a01b031615610aec5760405162461bcd60e51b815260040161097790611c89565b825160a00151516001600160a01b031615610b195760405162461bcd60e51b815260040161097790611d45565b610cf2565b825160800151600160f01b1115610bc457825160a08101515160608201516080909201516040808701519051600094610b609493909290918790602001611c07565b60408051601f1981840301815291815281516020928301206000818152600290935291205490915060001914610ba85760405162461bcd60e51b815260040161097790611d60565b6004546000918252600260205260409091209085019055610cf2565b8251608001517f2522648240000001ba344d8000000007ff9f800000000010a10000000000000d108015610c1c57508251608001517f2523648240000001ba344d8000000007ff9f800000000010a10000000000000d115b156100c257604083015115610c435760405162461bcd60e51b815260040161097790611cbf565b825160a0810151516060820151608090920151604051600093610c95939290917f2523648240000001ba344d8000000007ff9f800000000010a10000000000000d919091039043908790602001611c07565b60408051601f1981840301815291815281516020928301206000818152600390935291205490915015610cda5760405162461bcd60e51b815260040161097790611d7b565b60045460009182526003602052604090912090850190555b81858581518110610cff57fe5b6020908102919091010152505050600101610a11565b50610d1f81610faa565b6004805460081c6000908152600160205260408082209390935581546101000190915590517f3faa88fa2140243df341d6ac8970c156f1f8ab5b3a039c6ecdd196e7b6c535449190a150600195945050505050565b565b60006001600160a01b038416610dc5576040516001600160a01b0384169083156108fc029084906000818181858888f19350505050158015610dbc573d6000803e3d6000fd5b508190506103a9565b6000610dd18530611141565b60405163a9059cbb60e01b81529091506001600160a01b0386169063a9059cbb90610e029087908790600401611c38565b602060405180830381600087803b158015610e1c57600080fd5b505af1158015610e30573d6000803e3d6000fd5b505050506040513d601f19601f82011682018060405250610e549190810190611977565b506000610e618630611141565b8203905080610e6f57600080fd5b91506103a99050565b60006001600160a01b038316610e9b57813414610e9457600080fd5b5080610619565b6000610ea78430611141565b6040516323b872dd60e01b81529091506001600160a01b038516906323b872dd90610eda90339030908890600401611be3565b602060405180830381600087803b158015610ef457600080fd5b505af1158015610f08573d6000803e3d6000fd5b505050506040513d601f19601f82011682018060405250610f2c9190810190611977565b50600081610f3a8630611141565b03905080610f4757600080fd5b91506106199050565b6000806000610f6284604001516111e5565b915091506001600060088660200151901c815260200190815260200160002054610f988560000151866020015160ff168561124a565b14949350505050565b60019392505050565b805160009060015b60088160ff16101561112357600182811c9216918201911560005b6001840381101561104f57858160020281518110610fe757fe5b602002602001015186826002026001018151811061100157fe5b602002602001015160405160200161101a929190611c65565b6040516020818303038152906040528051906020012086828151811061103c57fe5b6020908102919091010152600101610fcd565b50806110a45784600284600202038151811061106757fe5b6020026020010151611078836112ee565b604051602001611089929190611c65565b60405160208183030381529060405280519060200120611100565b8460028460020203815181106110b657fe5b60200260200101518560018560020203815181106110d057fe5b60200260200101516040516020016110e9929190611c65565b604051602081830303815290604052805190602001205b85600185038151811061110f57fe5b602090810291909101015250600101610fb2565b508260008151811061113157fe5b6020026020010151915050919050565b60006001600160a01b03831661116257506001600160a01b03811631610619565b6040516370a0823160e01b81526001600160a01b038416906370a082319061118e908590600401611bcf565b60206040518083038186803b1580156111a657600080fd5b505afa1580156111ba573d6000803e3d6000fd5b505050506040513d601f19601f820116820180604052506111de9190810190611a98565b9050610619565b60008082600001516040516020016111fd9190611e13565b60408051601f198184030181528282528051602091820120868201519287015190945061122d9385939201611c73565b604051602081830303815290604052805190602001209150915091565b600081815b60088110156112e557600185821c16156112a15785816008811061126f57fe5b602002015184604051602001611286929190611c65565b604051602081830303815290604052805190602001206112db565b838682600881106112ae57fe5b60200201516040516020016112c4929190611c65565b604051602081830303815290604052805190602001205b915060010161124f565b50949350505050565b60006004821661138d5760028216611337576001821661131057506000610314565b507fad3228b676f7d3cd4284a5443f17f1962b36e491b30a40b2405849e597ba5fb5610314565b6001821661136657507fb4c11951957c6f8f642c4af61cd6b24640fec6dc7fc607ee8206a99e92410d30610314565b507f21ddb9a356815c3fac1026b6dec5df3124afbadb485c9ba5a3e3398a04b7ba85610314565b600282166113eb57600182166113c457507fe58769b32a1beaf1ea27375a44095a0d1fb664ce2dd358e7fcbfb78c26a19344610314565b507f0eb01ebfc9ed27500cd4dfc979272d1f0913cc9f66540d7e8005811109e1cf2d610314565b6001821661141a57507f887c22bd8750d34016ac3c66b5ff102dacdd73f6b014e710b51e8022af9a1968610314565b507fffd70157e48063fc33c97a050f7f640233bf646cc98d9524c6b92bcf3ab56f83610314565b6040518060600160405280611454611468565b815260200160008152602001600081525090565b6040518060e00160405280600081526020016114826114bc565b815260200161148f6114bc565b815260006020820181905260408201526060016114aa6114da565b81526020016114b76114fd565b905290565b60405180604001604052806002906020820280388339509192915050565b604051806040016040528060006001600160a01b031681526020016114b7611510565b60405180602001604052806114b761153d565b60405180604001604052806002905b61152761155c565b81526020019060019003908161151f5790505090565b6040518061010001604052806008906020820280388339509192915050565b6040805160a08101909152806114b760208201600481608080388339509192915050565b803561061981611e69565b600082601f83011261159b578081fd5b6115a56040611e22565b90508082846040850111156115b957600080fd5b60005b60028110156115db5781358352602092830192909101906001016115bc565b50505092915050565b600082601f8301126115f4578081fd5b6115fe6080611e22565b905080828460808501111561161257600080fd5b60005b60048110156115db578135835260209283019290910190600101611615565b60006104608284031215611646578081fd5b6116506060611e22565b905082601f83011261166157600080fd5b61010061166d81611e22565b80848386018781111561167f57600080fd5b600094505b60088510156116a85781358452602084019350602082019150600185019450611684565b91855250356020840152506116c390508361012084016116ce565b604082015292915050565b60008183036103408112156116e1578182fd5b6116eb6060611e22565b9150610300808212156116fd57600080fd5b61170760e0611e22565b91508335825261171a856020860161158b565b602083015261172c856060860161158b565b604083015261173e8560a08601611580565b606083015260c0840135608083015261175a8560e08601611807565b60a083015261176d85610200860161178e565b60c08301529082528201356020820152610320909101356040820152919050565b60006101008083850312156117a1578182fd5b6117ab6020611e22565b915083601f8401126117bc57600080fd5b6117c581611e22565b80848684870111156117d657600080fd5b600093505b60088410156117fb578035835260019390930192602092830192016117db565b50835250909392505050565b600061012080838503121561181a578182fd5b6118246040611e22565b9150823561183181611e69565b8252603f8301841361184257600080fd5b61184c6040611e22565b806020850186848701111561186057600080fd5b600093505b60028410156118ab576080818803121561187e57600080fd5b6118886020611e22565b61189288836115e4565b8152835260019390930192602090920191608001611865565b50602084015250909392505050565b6000806000606084860312156118ce578283fd5b833567ffffffffffffffff8111156118e4578384fd5b80850186601f8201126118f5578485fd5b8035915061190a61190583611e49565b611e22565b80838252602082019150602083016103408a6020828802870101111561192e578889fd5b8894505b8585101561195c576119448b836116ce565b84526020840193508082019150600185019450611932565b50909960208901359950604090980135979650505050505050565b600060208284031215611988578081fd5b815180151581146103a9578182fd5b6000602082840312156119a8578081fd5b5035919050565b6000806000606084860312156119c3578081fd5b83356119ce81611e69565b95602085013595506040909401359392505050565b6000806108c083850312156119f6578182fd5b611a008484611634565b9150611a10846104608501611634565b90509250929050565b600081830360a0811215611a2b578182fd5b611a356060611e22565b6060821215611a42578283fd5b611a4c6060611e22565b91508335611a5981611e69565b82526020840135611a6981611e69565b602083810191909152604085810135818501529282526060850135908201526080909301359083015250919050565b600060208284031215611aa9578081fd5b5051919050565b8060005b6002811015611ad3578151845260209384019390910190600101611ab4565b50505050565b80516001600160a01b031682526020808201516000918401905b6002831015611b3e5780515160009083905b6004831015611b2557805182526001929092019160209182019101611b05565b5050506001929092019160809190910190602001611af3565b5050505050565b805182526020810151611b5b6020840182611ab0565b506040810151611b6e6060840182611ab0565b5060608101516001600160a01b031660a083810191909152608082015160c0840152810151611ba060e0840182611ad9565b5060c08101515161020083019060005b6008811015611b3e578151835260209283019290910190600101611bb0565b6001600160a01b0391909116815260200190565b6001600160a01b039384168152919092166020820152604081019190915260600190565b6001600160a01b03958616815293909416602084015260408301919091526060820152608081019190915260a00190565b6001600160a01b03929092168252602082015260400190565b901515815260200190565b90815260200190565b918252602082015260400190565b9283526020830191909152604082015260600190565b6020808252600190820152600d60fa1b604082015260600190565b6020808252600190820152603360f81b604082015260600190565b6020808252600190820152603760f81b604082015260600190565b6020808252818101527f4f776e61626c653a2063616c6c6572206973206e6f7420746865206f776e6572604082015260600190565b6020808252600190820152601960f91b604082015260600190565b6020808252600190820152603160f81b604082015260600190565b6020808252600190820152603560f81b604082015260600190565b6020808252600190820152601b60f91b604082015260600190565b6020808252600190820152600760fb1b604082015260600190565b600061034082019050611daa828451611b45565b60208301516103008301526040909201516103209091015290565b815180516001600160a01b0390811683526020808301519091168184015260409182015182840152830151606083015290910151608082015260a00190565b61012081016106198284611ad9565b61030081016106198284611b45565b60405181810167ffffffffffffffff81118282101715611e4157600080fd5b604052919050565b600067ffffffffffffffff821115611e5f578081fd5b5060209081020190565b6001600160a01b0381168114611e7e57600080fd5b5056fea26469706673582212200c9f52386521a0b7e2c1605c780188b89fb2a13d554d365f9edea608134af9ff64736f6c63430006010033",
  "source": "pragma solidity >= 0.6.0;\npragma experimental ABIEncoderV2;\n\n\nimport \"./lib/IERC20.sol\";\nimport \"./lib/Ownable.sol\";\nimport \"./lib/AbstractERC20.sol\";\nimport \"./lib/MerkleProof.sol\";\n\n\ncontract Zeropool is Ownable{\n    using AbstractERC20 for IERC20;\n\n    uint256 constant DEPOSIT_EXISTS = 0xffffffffffffffffffffffffffffffffffffffffffffffffffffffffffffffff;\n    uint256 constant DEPOSIT_EXPIRES_BLOCKS = 500;\n    uint256 constant CHALLENGE_EXPIRES_BLOCKS = 5760;\n    uint256 constant BN254_ORDER = 16798108731015832284940804142231733909759579603404752749028378864165570215949;\n    uint256 constant MAX_AMOUNT = 1766847064778384329583297500742918515827483896875618958121606201292619776;\n    bytes32 constant EMPTY_BLOCK_HASH = 0x9867cc5f7f196b93bae1e27e6320742445d290f2263827498b54fec539f756af;\n\n    event Deposit();\n    event NewBlockPack();\n\n    struct Message {\n        uint256[4] data;\n    }\n\n    struct TxExternalFields {\n        address owner;\n        Message[2] message;\n    }\n\n    struct Proof {\n        uint256[8] data;\n    }\n\n    struct VK {\n        uint256[] data;\n    }\n\n    struct Tx {\n        uint256 rootptr;\n        uint256[2] nullifier;\n        uint256[2] utxo;\n        IERC20 token;\n        uint256 delta;\n        TxExternalFields ext;\n        Proof proof;\n    }\n\n    struct BlockItem {\n        Tx ctx;\n        uint256 new_root;\n        uint256 deposit_blocknumber;\n    }\n    struct BlockItemNote {\n        bytes32[8] proof;\n        uint256 id;\n        BlockItem item;\n    }\n\n    struct UTXO {\n        address owner;\n        IERC20 token;\n        uint256 amount;\n    }\n\n    struct PayNote {\n        UTXO utxo;\n        uint256 blocknumber;\n        uint256 txhash;\n    }\n\n\n    mapping (uint256 => bytes32) public rollup_block;\n    mapping (bytes32 => uint256) public deposit_state;\n    mapping (bytes32 => uint256) public withdraw_state;\n\n    \n\n    uint256 public rollup_tx_num;\n    VK tx_vk;\n    VK tree_update_vk;\n    \n\n    function blockItemNoteVerify(BlockItemNote memory note) internal view returns(bool) {\n        (bytes32 itemhash, bytes32 _) = blockItemHash(note.item);\n        return MerkleProof.keccak256MerkleProof(note.proof, note.id & 0xff, itemhash) == rollup_block[note.id>>8];\n    }\n\n    function blockItemHash(BlockItem memory item) internal pure returns(bytes32 itemhash, bytes32 txhash) {\n        txhash = keccak256(abi.encode(item.ctx));\n        itemhash = keccak256(abi.encode(txhash, item.new_root, item.deposit_blocknumber));\n    }\n\n    function groth16verify(VK memory vk, Proof memory proof, uint256[] memory inputs) internal view returns(bool) {\n        // TODO bind groth16verifier\n        return true;\n    }\n\n    constructor() public {\n        rollup_block[0] = EMPTY_BLOCK_HASH;\n        rollup_tx_num = 256;\n    }\n\n    function deposit(IERC20 token, uint256 amount, bytes32 txhash) public payable returns(bool) {\n        uint256 _amount = token.abstractReceive(amount);\n        bytes32 deposit_hash = keccak256(abi.encode(msg.sender, token, _amount, block.number, txhash));\n        deposit_state[deposit_hash] = DEPOSIT_EXISTS;\n        emit Deposit();\n        return true;\n    }\n\n    function depositCancel(PayNote memory d) public payable returns(bool) {\n        bytes32 deposit_hash = keccak256(abi.encode(d));\n        require(deposit_state[deposit_hash] >= rollup_tx_num);\n        require(d.blocknumber < block.number - DEPOSIT_EXPIRES_BLOCKS);\n        delete deposit_state[deposit_hash];\n        d.utxo.token.abstractTransfer(d.utxo.owner, d.utxo.amount);\n        return true;\n    }\n\n    function withdraw(PayNote memory w) public returns(bool) {\n        bytes32 withdraw_hash = keccak256(abi.encode(w));\n        require(withdraw_state[withdraw_hash] < rollup_tx_num);\n        require(w.blocknumber < block.number - CHALLENGE_EXPIRES_BLOCKS);\n        delete withdraw_state[withdraw_hash];\n        w.utxo.token.abstractTransfer(w.utxo.owner, w.utxo.amount);\n        return true;\n    }\n\n    function publishBlock(BlockItem[] memory items, uint rollup_cur_block_num, uint blocknumber_expires) public onlyOwner returns(bool) {\n        require(rollup_cur_block_num == rollup_tx_num >> 8, \"1\");\n        require(block.number < blocknumber_expires, \"2\");\n        uint256 nitems = items.length;\n        require(nitems > 0 && nitems <= 256);\n        bytes32[] memory hashes = new bytes32[](nitems);\n        for(uint i = 0; i<nitems; i++) {\n            BlockItem memory item = items[i];\n            bytes32 itemhash = keccak256(abi.encode(item));\n            bytes32 txhash = keccak256(abi.encode(item.ctx));\n            if (item.ctx.delta == 0) {\n                require(item.deposit_blocknumber == 0, \"3\");\n                require(item.ctx.token == IERC20(0), \"4\");\n                require(item.ctx.ext.owner == address(0), \"5\");\n            } else if (item.ctx.delta < MAX_AMOUNT) {\n                bytes32 deposit_hash = keccak256(abi.encode(item.ctx.ext.owner, item.ctx.token, item.ctx.delta, item.deposit_blocknumber, txhash));\n                require(deposit_state[deposit_hash]==DEPOSIT_EXISTS, \"6\");\n                deposit_state[deposit_hash] = rollup_tx_num+i;\n            } else if (item.ctx.delta > BN254_ORDER-MAX_AMOUNT && item.ctx.delta < BN254_ORDER) {\n                require(item.deposit_blocknumber == 0, \"7\");\n                bytes32 withdraw_hash = keccak256(abi.encode(item.ctx.ext.owner, item.ctx.token, BN254_ORDER-item.ctx.delta, block.number, txhash));\n                require(withdraw_state[withdraw_hash] == 0, \"8\");\n                withdraw_state[withdraw_hash] = rollup_tx_num + i;\n            } else revert();\n\n            hashes[i] = itemhash;\n        }\n        rollup_block[rollup_tx_num >> 8] = MerkleProof.keccak256MerkleTree(hashes);\n        rollup_tx_num += 256;\n        emit NewBlockPack();\n        return true;\n    }\n\n    function stopRollup() public {\n        //TODO implement rollup stop logic\n    }\n\n    function challengeTx(BlockItemNote memory cur, BlockItemNote memory base) public returns(bool) {\n        require(blockItemNoteVerify(cur) && blockItemNoteVerify(base));\n        require(cur.item.ctx.rootptr == base.id);\n        uint256[] memory inputs = new uint256[](8);\n        inputs[0] = base.item.new_root;\n        inputs[1] = cur.item.ctx.nullifier[0];\n        inputs[2] = cur.item.ctx.nullifier[1];\n        inputs[3] = cur.item.ctx.utxo[0];\n        inputs[4] = cur.item.ctx.utxo[1];\n        inputs[5] = uint256(address(cur.item.ctx.token));\n        inputs[6] = cur.item.ctx.delta;\n        inputs[7] = uint256(keccak256(abi.encode(cur.item.ctx.ext)));\n        require(!groth16verify(tx_vk, cur.item.ctx.proof, inputs) || cur.item.ctx.rootptr >= cur.id);\n        stopRollup();\n        return true;\n    }\n\n    function challengeUTXOTreeUpdate(BlockItemNote memory cur, BlockItemNote memory prev) public returns(bool) {\n        require(blockItemNoteVerify(cur) && blockItemNoteVerify(prev));\n        require(cur.id == prev.id+1);\n        uint256[] memory inputs = new uint256[](5);\n        inputs[0] = prev.item.new_root;\n        inputs[1] = cur.item.new_root;\n        inputs[2] = prev.id;\n        inputs[3] = cur.item.ctx.utxo[0];\n        inputs[4] = cur.item.ctx.utxo[1];\n        require(!groth16verify(tree_update_vk, cur.item.ctx.proof, inputs));\n        stopRollup();\n        return true;\n    }\n\n    function challengeDoubleSpend(BlockItemNote memory cur, BlockItemNote memory prev) public returns(bool) {\n        require(blockItemNoteVerify(cur) && blockItemNoteVerify(prev));\n        require(cur.id > prev.id);\n        require(cur.item.ctx.nullifier[0] == prev.item.ctx.nullifier[0] ||\n            cur.item.ctx.nullifier[0] == prev.item.ctx.nullifier[1] ||\n            cur.item.ctx.nullifier[1] == prev.item.ctx.nullifier[0] ||\n            cur.item.ctx.nullifier[1] == prev.item.ctx.nullifier[1]);\n        stopRollup();\n        return true;\n    }\n\n\n\n}\n",
  "sourcePath": "/Users/raptor/Desktop/projects/zp-chrome-extension/zeropool/smart-contracts/contracts/ZeroPool.sol",
  "compiler": {
    "name": "solc",
    "version": "0.6.1+commit.e6f7d5a4.Emscripten.clang"
  },
  "schemaVersion": "3.0.23",
  "updatedAt": "2020-02-04T03:15:41.607Z",
  "networkType": "ethereum",
  "devdoc": {
    "methods": {}
  },
  "userdoc": {
    "methods": {}
  }
}